{
  "_format": "hh-sol-artifact-1",
  "contractName": "Pwned",
  "sourceName": "contracts/Pwned.sol",
  "abi": [
    {
      "inputs": [
        {
          "internalType": "bytes32",
          "name": "_password",
          "type": "bytes32"
        }
      ],
      "stateMutability": "nonpayable",
      "type": "constructor"
    },
    {
      "inputs": [
        {
          "internalType": "address",
          "name": "",
          "type": "address"
        }
      ],
      "name": "balances",
      "outputs": [
        {
          "internalType": "uint256",
          "name": "",
          "type": "uint256"
        }
      ],
      "stateMutability": "view",
      "type": "function"
    },
    {
      "inputs": [
        {
          "internalType": "address",
          "name": "_to",
          "type": "address"
        }
      ],
      "name": "deposit",
      "outputs": [],
      "stateMutability": "payable",
      "type": "function"
    },
    {
      "inputs": [
        {
          "internalType": "address",
          "name": "_request",
          "type": "address"
        }
      ],
      "name": "getBalance",
      "outputs": [
        {
          "internalType": "uint256",
          "name": "balance",
          "type": "uint256"
        }
      ],
      "stateMutability": "view",
      "type": "function"
    },
    {
      "inputs": [
        {
          "internalType": "bytes32",
          "name": "_password",
          "type": "bytes32"
        }
      ],
      "name": "lock",
      "outputs": [],
      "stateMutability": "nonpayable",
      "type": "function"
    },
    {
      "inputs": [],
      "name": "locked",
      "outputs": [
        {
          "internalType": "bool",
          "name": "",
          "type": "bool"
        }
      ],
      "stateMutability": "view",
      "type": "function"
    },
    {
      "inputs": [
        {
          "internalType": "bytes32",
          "name": "_password",
          "type": "bytes32"
        }
      ],
      "name": "unlock",
      "outputs": [],
      "stateMutability": "nonpayable",
      "type": "function"
    },
    {
      "inputs": [
        {
          "internalType": "uint256",
          "name": "_amount",
          "type": "uint256"
        }
      ],
      "name": "withdraw",
      "outputs": [],
      "stateMutability": "nonpayable",
      "type": "function"
    },
    {
      "stateMutability": "payable",
      "type": "receive"
    }
  ],
  "bytecode": "0x608060405234801561001057600080fd5b5060405161080a38038061080a83398181016040528101906100329190610094565b60016000806101000a81548160ff02191690831515021790555080600181905550506100c1565b600080fd5b6000819050919050565b6100718161005e565b811461007c57600080fd5b50565b60008151905061008e81610068565b92915050565b6000602082840312156100aa576100a9610059565b5b60006100b88482850161007f565b91505092915050565b61073a806100d06000396000f3fe6080604052600436106100745760003560e01c8063cf3090121161004e578063cf3090121461010f578063ec9b5b3a1461013a578063f340fa0114610163578063f8b2cb4f1461017f5761007b565b806301670ba91461008057806327e235e3146100a95780632e1a7d4d146100e65761007b565b3661007b57005b600080fd5b34801561008c57600080fd5b506100a760048036038101906100a2919061048a565b6101bc565b005b3480156100b557600080fd5b506100d060048036038101906100cb9190610515565b6101e3565b6040516100dd919061055b565b60405180910390f35b3480156100f257600080fd5b5061010d600480360381019061010891906105a2565b6101fb565b005b34801561011b57600080fd5b50610124610320565b60405161013191906105ea565b60405180910390f35b34801561014657600080fd5b50610161600480360381019061015c919061048a565b610331565b005b61017d60048036038101906101789190610515565b610358565b005b34801561018b57600080fd5b506101a660048036038101906101a19190610515565b6103f0565b6040516101b3919061055b565b60405180910390f35b80600154036101e05760016000806101000a81548160ff0219169083151502179055505b50565b60026020528060005260406000206000915090505481565b60008054906101000a900460ff161561021357600080fd5b80600260003373ffffffffffffffffffffffffffffffffffffffff1673ffffffffffffffffffffffffffffffffffffffff168152602001908152602001600020541061031d5760003373ffffffffffffffffffffffffffffffffffffffff168260405161027f90610636565b60006040518083038185875af1925050503d80600081146102bc576040519150601f19603f3d011682016040523d82523d6000602084013e6102c1565b606091505b5050905081600260003373ffffffffffffffffffffffffffffffffffffffff1673ffffffffffffffffffffffffffffffffffffffff1681526020019081526020016000206000828254610314919061067a565b92505081905550505b50565b60008054906101000a900460ff1681565b80600154036103555760008060006101000a81548160ff0219169083151502179055505b50565b6103aa34600260008473ffffffffffffffffffffffffffffffffffffffff1673ffffffffffffffffffffffffffffffffffffffff1681526020019081526020016000205461043990919063ffffffff16565b600260008373ffffffffffffffffffffffffffffffffffffffff1673ffffffffffffffffffffffffffffffffffffffff1681526020019081526020016000208190555050565b6000600260008373ffffffffffffffffffffffffffffffffffffffff1673ffffffffffffffffffffffffffffffffffffffff168152602001908152602001600020549050919050565b6000818361044791906106ae565b905092915050565b600080fd5b6000819050919050565b61046781610454565b811461047257600080fd5b50565b6000813590506104848161045e565b92915050565b6000602082840312156104a05761049f61044f565b5b60006104ae84828501610475565b91505092915050565b600073ffffffffffffffffffffffffffffffffffffffff82169050919050565b60006104e2826104b7565b9050919050565b6104f2816104d7565b81146104fd57600080fd5b50565b60008135905061050f816104e9565b92915050565b60006020828403121561052b5761052a61044f565b5b600061053984828501610500565b91505092915050565b6000819050919050565b61055581610542565b82525050565b6000602082019050610570600083018461054c565b92915050565b61057f81610542565b811461058a57600080fd5b50565b60008135905061059c81610576565b92915050565b6000602082840312156105b8576105b761044f565b5b60006105c68482850161058d565b91505092915050565b60008115159050919050565b6105e4816105cf565b82525050565b60006020820190506105ff60008301846105db565b92915050565b600081905092915050565b50565b6000610620600083610605565b915061062b82610610565b600082019050919050565b600061064182610613565b9150819050919050565b7f4e487b7100000000000000000000000000000000000000000000000000000000600052601160045260246000fd5b600061068582610542565b915061069083610542565b9250828210156106a3576106a261064b565b5b828203905092915050565b60006106b982610542565b91506106c483610542565b9250827fffffffffffffffffffffffffffffffffffffffffffffffffffffffffffffffff038211156106f9576106f861064b565b5b82820190509291505056fea2646970667358221220f32a7b648924830f072286446a688a5696bb7b5e80177437fc43517e412cdc3264736f6c634300080d0033",
  "linkReferences": {},
  "deployedLinkReferences": {}
}